:020000040000FA
:10000000300300200D03000015030000170300005B
:10001000190300001B0300001D0300000000000086
:100020000000000000000000000000001F030000AE
:10003000210300000000000023030000250300004E
:100040009D04000045050000ED0500009506000038
:100050003D070000310300003303000035030000BA
:1000600037030000390300003B0300003D0300009C
:100070003F0300004103000043030000450300006C
:1000800047030000490300004B0300004D0300003C
:100090004F0300005103000053030000550300000C
:1000A00057030000590300005B0300005D030000DC
:1000B0005F03000061030000E90700006503000022
:1000C00067030000690300006B0300006D0300007C
:1000D0006F0300007103000073030000750300004C
:1000E0007703000079030000000000007B0300009C
:1000F0007D0300007F0300008103000083030000F4
:100100008503000087030000890300008B030000C3
:1001100000000000000000008D0300008F030000BD
:100120009103000093030000950300009703000073
:10013000990300009B0300009D0300009F03000043
:1001400000000000000000000000000000000000AF
:10015000A1030000A3030000A5030000A703000003
:10016000000000000000000000000000000000008F
:10017000000000000000000000000000000000007F
:10018000000000000000000000000000000000006F
:10019000000000000000000000000000000000005F
:1001A000000000000000000000000000000000004F
:1001B000A9030000AB030000AD030000AF03000083
:1001C000B1030000B3030000B5030000B703000053
:1001D000B9030000BB030000BD030000BF03000023
:1001E000C1030000C3030000C503000000000000BD
:1001F00000000000C7030000C9030000CB0300009B
:10020000CD030000CF03000000000000000000004C
:10021000D1030000D3030000D5030000D703000082
:10022000D9030000DB030000DD030000DF03000052
:10023000E1030000E3030000E5030000E703000022
:10024000E9030000EB030000ED030000EF030000F2
:10025000F1030000F3030000F5030000F7030000C2
:10026000F9030000FB030000FD03000000F002F8AA
:1002700000F03CF80AA090E8000C82448344AAF104
:100280000107DA4501D100F031F8AFF2090EBAE802
:100290000F0013F0010F18BFFB1A43F001031847BA
:1002A000800C0000A00C0000103A24BF78C878C170
:1002B000FAD8520724BF30C830C144BF04680C606C
:1002C000704700000023002400250026103A28BFB4
:1002D00078C1FBD8520728BF30C148BF0B607047B8
:1002E0001FB500F00FFE1FBD10B510BD00F09BF84C
:1002F0001146FFF7F5FF00F087FD00F0B9F803B4F1
:10030000FFF7F2FF03BC00F0C1F800003F48804750
:100310003F480047FEE7FEE7FEE7FEE7FEE7FEE7B1
:10032000FEE7FEE7FEE7FEE7FEE7FEE7FEE7FEE7A5
:10033000FEE7FEE7FEE7FEE7FEE7FEE7FEE7FEE795
:10034000FEE7FEE7FEE7FEE7FEE7FEE7FEE7FEE785
:10035000FEE7FEE7FEE7FEE7FEE7FEE7FEE7FEE775
:10036000FEE7FEE7FEE7FEE7FEE7FEE7FEE7FEE765
:10037000FEE7FEE7FEE7FEE7FEE7FEE7FEE7FEE755
:10038000FEE7FEE7FEE7FEE7FEE7FEE7FEE7FEE745
:10039000FEE7FEE7FEE7FEE7FEE7FEE7FEE7FEE735
:1003A000FEE7FEE7FEE7FEE7FEE7FEE7FEE7FEE725
:1003B000FEE7FEE7FEE7FEE7FEE7FEE7FEE7FEE715
:1003C000FEE7FEE7FEE7FEE7FEE7FEE7FEE7FEE705
:1003D000FEE7FEE7FEE7FEE7FEE7FEE7FEE7FEE7F5
:1003E000FEE7FEE7FEE7FEE7FEE7FEE7FEE7FEE7E5
:1003F000FEE7FEE7FEE7FEE7FEE7FEE7FEE70000BA
:1004000004480549034A054B70470000690800008D
:100410006D02000030010020300300203001002078
:10042000704770477047754600F02CF8AE460500DF
:100430006946534620F00700854618B020B5FFF7FF
:10044000DFFFBDE820404FF000064FF000074FF0FF
:1004500000084FF0000BAC46ACE8C009ACE8C0099E
:10046000ACE8C009ACE8C00921F007018D4670472F
:1004700010B50446AFF300802046BDE81040FFF7FA
:100480003EBF0000004870470800002001491820C6
:10049000ABBEFEE7260002007047000044F2184C95
:1004A000C4F2000CDCF80010C90723D1DCF80010FE
:1004B000890722D4DCF80010490721D4DCF80010A9
:1004C000090720D4DCF80010C9061FD4DCF800109E
:1004D00089061ED4DCF8001049061DD4DCF8001093
:1004E000012211F0800182EAD1124FF0070108BF0A
:1004F000082113E00022002110E0012100220DE07C
:10050000022100220AE00321002207E00421002248
:1005100004E00521002201E006210022DCF804307D
:10052000012088401843002ACCF8040018BF704707
:1005300040F26800C2F2000050F8210000B100470C
:100540007047000045F2184CC4F2000CDCF80010B3
:10055000C90723D1DCF80010890722D4DCF8001089
:10056000490721D4DCF80010090720D4DCF800107A
:10057000C9061FD4DCF8001089061ED4DCF8001070
:1005800049061DD4DCF80010012211F0800182EA36
:10059000D1124FF0070108BF082113E0002200210B
:1005A00010E0012100220DE0022100220AE00321D7
:1005B000002207E00421002204E00521002201E0DE
:1005C00006210022DCF80430012088401843002A6C
:1005D000CCF8040018BF704740F26800C2F2000077
:1005E00000EB8100006A00B10047704746F2184CEA
:1005F000C4F2000CDCF80010C90723D1DCF80010AD
:10060000890722D4DCF80010490721D4DCF8001057
:10061000090720D4DCF80010C9061FD4DCF800104C
:1006200089061ED4DCF8001049061DD4DCF8001041
:10063000012211F0800182EAD1124FF0070108BFB8
:10064000082113E00022002110E0012100220DE02A
:10065000022100220AE00321002207E004210022F7
:1006600004E00521002201E006210022DCF804302C
:10067000012088401843002ACCF8040018BF7047B6
:1006800040F26800C2F2000000EB8100006C00B193
:100690000047704747F2184CC4F2000CDCF8001019
:1006A000C90723D1DCF80010890722D4DCF8001038
:1006B000490721D4DCF80010090720D4DCF8001029
:1006C000C9061FD4DCF8001089061ED4DCF800101F
:1006D00049061DD4DCF80010012211F0800182EAE5
:1006E000D1124FF0070108BF082113E000220021BA
:1006F00010E0012100220DE0022100220AE0032186
:10070000002207E00421002204E00521002201E08C
:1007100006210022DCF80430012088401843002A1A
:10072000CCF8040018BF704740F26800C2F2000025
:1007300000EB8100006E00B10047704744F2184C96
:10074000C4F2020CDCF80010C90723D1DCF8001059
:10075000890722D4DCF80010490721D4DCF8001006
:10076000090720D4DCF80010C9061FD4DCF80010FB
:1007700089061ED4DCF8001049061DD4DCF80010F0
:10078000012211F0800182EAD1124FF0070108BF67
:10079000082113E00022002110E0012100220DE0D9
:1007A000022100220AE00321002207E004210022A6
:1007B00004E00521002201E006210022DCF80430DB
:1007C000012088401843002ACCF8040018BF704765
:1007D00040F26800C2F2000000EB8100D0F8800017
:1007E00000B100477047000045F2184CC4F2020CFB
:1007F000DCF80010C90717D1DCF80010890716D4FF
:10080000DCF80010490715D4DCF80010090714D4EF
:10081000DCF80010012211F0100182EA11124FF0F1
:10082000040108BF08210AE00022002107E001219D
:10083000002204E00221002201E003210022DCF872
:100840000430012088401843002ACCF8040018BF67
:10085000704740F26800C2F2000000EB8100D0F85F
:10086000A00000B1004770474EF68852CEF2000259
:1008700013684EF2600043F47003136042F61002F6
:10088000C4F20F00C0F28072026143F6D122C0F2BE
:100890008E72026040F64252C0F29E1202F5005380
:1008A000036040F6000340F2425CC0F28013C0F2E5
:1008B000DE1C03F5005101610CF50061026003616B
:1008C000016000BF50F8101C4906FBD54FF0C07105
:1008D000C0F800C00161704780B50520012100F01B
:1008E0004FFA0520032100F04BFA0520022100F009
:1008F00047FA40F20000C2F20000BDE8804000F07C
:1009000053B8000082B040F2000440F22A170026DB
:10091000C2F200040DF10705C2F200072046294685
:100920008DF8076000F064F89DF80700012804D1F5
:100930003878011F18BF411C3970387804281AD83C
:10094000DFE800F00C1B032025000520012100F04A
:1009500033FA0520032100F043FADFE705200121E7
:1009600000F02AFA0520032100F026FA05200221D2
:1009700000F022FAD2E73E70D0E70520012100F016
:100980002FFACBE70520032100F016FA07E0052037
:10099000012100F025FA0520032100F021FA0520AD
:1009A000022100F01DFAB9E770B582B090B104469B
:1009B00000880026ADF80400A078ADF80060032898
:1009C0000AD8C00040F2034121FA00F000258DF85A
:1009D000060002E0022507E0012501A800F06CF8FE
:1009E000684600F019FAE670284602B070BD0000B3
:1009F000B0B582B0054600284FF0020027D00C4663
:100A000029B3E87810B1032002B0B0BD2878697826
:100A10000DF1070200F020F8A878032819D8DFE8C4
:100A200000F0020C020C9DF80700B0FA80F14909B1
:100A3000217038B1002002B0B0BD9DF80700012838
:100A40002070F7D14FF4967000F016FA002002B033
:100A5000B0BD012002B0B0BD002A04BF0520704720
:100A60000346052801D901200EE0072901D90220FB
:100A70000AE0002004294FF0000C88BF4FF0010C61
:100A8000052B08BF4FEA4C00002818BF704740F202
:100A9000000CC4F2020C042B38BF4FF0402C0CEBBE
:100AA0000333D3F8FCC301238B4003EA0C0323FA7E
:100AB00001F111707047000070B530B1037890F803
:100AC00001C0052B03D9012510E0002070BDBCF149
:100AD000070F01D9022509E00025BCF1040F4FF0F2
:100AE000000188BF0121052B08BF4D004FF0010117
:100AF0000DB1084670BD4EF20862C4F20F021468D0
:100B0000994021431160817840F2000E0529C4F21A
:100B1000020E23D8DFE801F00327425C7EA0714675
:100B2000042B38BF4FF0402101EB033140F21C523F
:100B30000A431468012606FA0CF63443146041F4A3
:100B4000A5621468B443146041F48462146841F4EB
:100B50008061B44314600A68B243A1E00325002D0C
:100B600040F0BC809EE07146042B38BF4FF040211E
:100B700001EB033140F21C520A431468012606FAC5
:100B80000CF63443146041F4A5621468B443146055
:100B900041F48462146841F4806138E07146042BAA
:100BA00038BF4FF0402101EB033141F480621468FB
:100BB000012606FA0CF6B443146040F21C520A43B4
:100BC000146841F4A561B44314600A6832430A60B2
:100BD0007146042B38BF4FF0402101EB033140F246
:100BE0001C520A431468012606FA0CF634431460BA
:100BF00041F4A5621468B443146041F4846214683B
:100C0000B443146041F48062146841F4A261B443B7
:100C1000146043E07146042B38BF4FF0402101EBD4
:100C2000033140F21C520A431468012606FA0CF6FE
:100C30003443146041F4A5621468B443146041F471
:100C400084621468B443146041F480621468B4434D
:100C5000146040F2145220E07146042B38BF4FF06C
:100C6000402101EB033140F21C520A431468012673
:100C700006FA0CF63443146041F4A5621468B443D8
:100C8000146041F484621468B443146041F48062D7
:100C900014683443146040F20C5211430A68324322
:100CA0000A60DDB9042B38BF4FF0402E0EEB033342
:100CB00043F480610A68012101FA0CF10A4032FA1A
:100CC0000CF20BD0C07802280AD0012810D00028DE
:100CD0001CBF052070BD43F4A0600CE0284670BD29
:100CE00043F4A1600268114301602946084670BDC3
:100CF00040F204501843026811430160284670BD59
:100D000010B58646052801D901200FE0072901D931
:100D100002200BE0002004294FF0000C88BF4FF0A8
:100D2000010CBEF1050F08BF4FEA4C00002818BFA8
:100D300010BD0023C4F20203BEF1040F38BF4FF010
:100D4000402303EB0E3EDEF80044012303FA01FCCE
:100D500004EA0C0333FA01F109D0012A09D032B9AF
:100D60004EF47F710A6822EA0C020A6010BD052069
:100D700010BD4EF47F710A6842EA0C020A6010BD91
:100D8000024605284FF0010098BF072900D9704797
:100D900080B582B00120ADF8060001A88DF80420CE
:100DA0008DF80510FFF788FE002818BF012002B05B
:100DB000BDE8804070470000024605284FF0010062
:100DC00098BF072900D9704780B510460022FFF769
:100DD00097FF002818BF0120BDE880407047000041
:100DE000024605284FF0010098BF072900D9704737
:100DF00080B510460122FFF783FF002818BF0120AD
:100E0000BDE880407047000080B5FFF765FDFFF743
:100E100079FD002080BD0000002804BF022070473B
:100E20000278012A84BF01207047417801200129FE
:100E300088BF70474EF2100CCEF2000CDCF8003088
:100E4000002A23F0020318BF0233CCF80030DCF88C
:100E50000020002922F0040218BF0432CCF8002040
:100E600040F22812C2F20002117040F22911C2F2BF
:100E7000000108700020704740F22911C2F2000101
:100E8000097801291CBF0120704740F22811C2F2E5
:100E900000010978012903D099B99FED191A01E0E1
:100EA0009FED161A00EE100AB8EE400A80EE010A15
:100EB000B7EE001A30EE010ABCEEC00A10EE100ABE
:100EC00000E000204EF21001CEF200010022486046
:100ED0008A600A6800F17F4042F001020A6000BFA8
:100EE0000A68D203FCD50022B0F17F4F98BF0122DF
:100EF0000B68500023F001020A6070476F1203393B
:100F00006F128339F1EE100A4FF6FF71C0F2C03153
:100F100020EA010040F04070E1EE100A7047000046
:100F2000400F00000000002004000000A8020000A4
:100F3000440F00000800002028030000C402000045
:040F400005040000A4
:040000050000030DE7
:00000001FF
